:100000000C9463000C948B000C948B000C943A06B7
:100010000C943A060C943A060C948B000C948B00CA
:100020000C948B000C948B000C948B000C948B0024
:100030000C948B000C948B000C948B000C948B0014
:100040000C94F0050C948B000C948B000C948B009A
:100050000C948B000C948B000C948B000C948B00F4
:100060000C948B000C948B000000000024002700EF
:100070002A0000000000250028002B0000000008D6
:10008000000201000003040700000000000000005F
:1000900000000000230026002900040404040404D6
:1000A0000404020202020202030303030303010227
:1000B00004081020408001020408102001020408F6
:1000C000102083091C0A11241FBECFEFD8E0DEBF29
:1000D000CDBF11E0A0E0B1E0E8E8F9E102C0059091
:1000E0000D92AA3FB107D9F722E0AAEFB1E001C013
:1000F0001D92A438B207E1F710E0C2E6D0E004C0D8
:100100002197FE010E94700AC136D107C9F70E94EB
:10011000F9060C94B70C0C940000DC01ED91FC91F5
:100120000190F081E02D0994CF92DF92EF92FF923F
:100130000F931F93CF93DF936C017A018B01C0E083
:10014000D0E0CE15DF0589F0D8016D918D01D60183
:10015000ED91FC910190F081E02DC6010995892B6C
:1001600011F47E0102C02196ECCFC701DF91CF913F
:100170001F910F91FF90EF90DF90CF90089590E046
:10018000FC01E458FF4F3491FC01E255FF4F2491EC
:10019000FC01E656FF4FE491EE2309F43BC0332304
:1001A00039F1333091F038F43130A9F0323001F5C3
:1001B00084B58F7D12C0373091F03830A1F03430E3
:1001C000B9F4809180008F7D03C0809180008F778B
:1001D000809380000DC084B58F7784BD09C0809165
:1001E000B0008F7703C08091B0008F7D8093B00006
:1001F000F0E0EE0FFF1FEE58FF4FA591B4918FB7BF
:10020000F894EC91611103C020952E2301C02E2B90
:100210002C938FBF0895CF93DF9390E0FC01E255BC
:10022000FF4F2491FC01E656FF4F8491882361F132
:1002300090E0880F991FFC01E859FF4FC591D491B8
:10024000FC01EE58FF4FA591B491611109C09FB711
:10025000F8948881209582238883EC912E230BC00B
:10026000623061F49FB7F8943881822F80958323A0
:100270008883EC912E2B2C939FBF06C08FB7F894E8
:10028000E8812E2B28838FBFDF91CF9108958E3088
:1002900008F08E508770806480937C0080917A0093
:1002A000806480937A0080917A0086FDFCCF8091F3
:1002B00078002091790090E0922B08958F929F9280
:1002C000AF92BF92CF92DF92EF92FF9282E00E94B4
:1002D0004701BC01990F880B990B0E948B0B20E002
:1002E00030E040EA50E40E94400C20E030EC4FE760
:1002F00054E40E94E80A9B01AC0160E070EE8BE2DE
:1003000096E40E94E80A20E030E849E055E40E94C3
:10031000760A6B017C0121E538E045E45BE20E944E
:10032000400CA70196010E94400CA70196010E9473
:10033000400CA70196010E94400C4B015C012FE587
:1003400030E749E851E3C701B6010E94400CA7011C
:1003500096010E94400CA70196010E94400C9B014F
:10036000AC01C501B4010E94760A4B015C012CE985
:1003700033E549EC56E3C701B6010E94400CA701E2
:1003800096010E94400C9B01AC01C501B4010E9482
:10039000760A4B015C0121E431EF43EE5DE3C701D6
:1003A000B6010E94400C9B01AC01C501B4010E9442
:1003B000770A27ED33EE4AE153E40E94760A20E003
:1003C00030E040E850E40E94760AFF90EF90DF9022
:1003D000CF90BF90AF909F908F9008953FB7F894C3
:1003E00080913F0290914002A0914102B09142025F
:1003F00026B5A89B05C02F3F19F00196A11DB11D80
:100400003FBFBA2FA92F982F8827820F911DA11DBA
:10041000B11DBC01CD0142E0660F771F881F991FF7
:100420004A95D1F708952091450230914602281748
:10043000390771F49091430280914402981741F07A
:10044000E0914302F0E0E650FE4F808190E0089595
:100450008FEF9FEF089508951F93CF93DF93DC01F3
:100460005C962D913C915D972115310539F481E021
:1004700090E013969C938E9312973DC05196ED9108
:10048000FC91529750969C915097892F80951FB759
:100490005E964C915E9741FB772770F941FD609520
:1004A000F8944081772311F0492B01C04823408301
:1004B000E9012197F1F748E0508160FF02C0592B14
:1004C00001C058235083E9012197F1F76695415007
:1004D00099F7772321F090818923808303C080815D
:1004E000982B90831FBF5C968D919C915D9701978F
:1004F000F1F721E030E0C901DF91CF911F9108951C
:1005000020914502309146022817390771F48091F5
:1005100044022091430290E0805C9F4F821B91092E
:1005200060E470E00E94260A089580E090E008955B
:10053000209145023091460228173907B9F490916D
:10054000430280914402981789F0E0914302F0E061
:10055000E650FE4F80812091430230E02F5F3F4FF5
:100560002F7333272093430290E008958FEF9FEF7E
:100570000895E0914502F0914602E817F90769F401
:10058000A389B4899C918589809589238C93109245
:1005900046021092450281E0089580E00895CF93CD
:1005A000DF93EC0160E08E810E94BF0061E08E81EC
:1005B0000E94BF0060E08E810E94BF008BE891E046
:1005C0000197F1F7DF91CF910895CF92DF92EF92EB
:1005D000FF920F931F93CF93DF937C016C0187E011
:1005E000C80ED11CC0E0D0E0062F10E0B8010C2EE0
:1005F00002C0759567950A94E2F76170F6018191E2
:100600006F010E94BF002196C430D10579F7C70160
:10061000DF91CF911F910F91FF90EF90DF90CF90DE
:100620000C94CF02CF92DF92EF92FF920F931F9321
:10063000CF93DF93EC01F62E642F8C810E94BF00D4
:100640008D818F3F19F060E00E94BF008F850F2DD4
:1006500010E084FF25C06E0187E0C80ED11CE12C9C
:10066000F12CB8010E2C02C0759567950A94E2F73B
:100670006170F60181916F010E94BF00FFEFEF1AD8
:10068000FF0A88E0E816F10461F7CE01DF91CF910F
:100690001F910F91FF90EF90DF90CF900C94CF02BD
:1006A000B80184E0759567958A95E1F7CE010E94BF
:1006B000E5026F2DCE01DF91CF911F910F91FF9039
:1006C000EF90DF90CF900C94E50241E00E9412037E
:1006D00081E090E0089540E00C941203EF92FF92C5
:1006E0000F931F93CF93DF93EC01623018F08F8547
:1006F00088608F876B8B1C8A80E48D8B80E18E8B6A
:1007000080E58F8B61E08C810E940B018D818F3F92
:1007100019F061E00E940B0161E08E810E940B01E3
:100720007E0187E0E80EF11C00E010E08F8584FD7B
:1007300003C084E090E002C088E090E00817190749
:100740004CF461E0F70181917F010E940B010F5F82
:100750001F4FECCF8BE39DE00197F1F760E08C81B8
:100760000E94BF0060E08E810E94BF008D818F3F9C
:1007700019F060E00E94BF006F8564FD1DC063E05A
:10078000CE010E94E5020BE416E4C8010197F1F7DF
:1007900063E0CE010E94E502C8010197F1F763E032
:1007A000CE010E94E50283E592E00197F1F762E055
:1007B000CE010E94E50216C06062CE010E946B036A
:1007C0008BE496E40197F1F76F856062CE010E9499
:1007D0006B0383E592E00197F1F76F856062CE01CC
:1007E0000E946B036F856062CE010E946B0384E000
:1007F000888B6CE0CE010E946B0361E0CE010E9409
:100800006B038BE39FE10197F1F782E0898B66E050
:10081000CE01DF91CF911F910F91FF90EF900C943B
:100820006B03643008F063E090916002691710F088
:100830006FEF690FE62FF0E0E35BFD4F9489682FBF
:10084000690F60688DE492E00C946B030F931F9323
:1008500061E087E00E94BF0083E290E00197F1F73A
:1008600060E087E00E94BF00E6EBF0E06491E2EA1E
:10087000F0E0E491F0E0EE0FFF1FE057FF4F8591AD
:10088000949100E412E42FE030E0462F0E94B40679
:10089000611571058105910539F0DC01CB010196E7
:1008A000A11DB11DBF7003C080E090E0DC016AE3D0
:1008B00070E00E94260A072E000C880B990B0E94FC
:1008C0008B0B1F910F9108950E94B20C6115710559
:1008D00079F0FB0101900020E9F73197AF01461B49
:1008E000570BDC01ED91FC910280F381E02D09941E
:1008F00080E090E00895CF93DF93BC0185E692E01D
:100900000E946604EC0168E171E085E692E00E94D5
:1009100066048C0F9D1FDF91CF9108954F925F92D7
:100920006F927F92EF92FF920F931F93CF93DF937B
:10093000CDB7DEB7A1970FB6F894DEBF0FBECDBF1F
:100940007C01FA01CB0119A2223008F42AE08E01C1
:100950000F5D1F4F422E512C612C712CBF01A30142
:1009600092010E943A0AF901CA01015011096A3044
:1009700014F4605D01C0695CD8016C93232B242BB7
:10098000252B61F7B801C7010E946604A1960FB636
:10099000F894DEBF0FBECDBFDF91CF911F910F91B5
:1009A000FF90EF907F906F905F904F900895CF925F
:1009B000DF92EF92FF920F931F93CF93DF936B0120
:1009C000770FEE08FF08F7FE1BC0EC016DE20E94F6
:1009D0008D008C0144275527BA014C195D096E0919
:1009E0007F092AE0CE010E948E04800F911FDF91C3
:1009F000CF911F910F91FF90EF90DF90CF900895CE
:100A00002AE0B701A601DF91CF911F910F91FF90CE
:100A1000EF90DF90CF900C948E044F925F926F9284
:100A20007F928F929F92AF92BF92CF92DF92EF927E
:100A3000FF92CF93DF93EC016A017B01B22E9A0102
:100A4000AB01C701B6010E94AD0C882319F06BE120
:100A500071E027C026013701E89477F82FEF3FEFC8
:100A60004FE75FE7C301B2010E94AD0C81110DC0D9
:100A70002FEF3FEF4FE75FE7C301B2010E94E30AA8
:100A800018161CF46FE171E00CC02FEF3FEF4FE739
:100A90005FE4C701B6010E943B0C18169CF463E2A8
:100AA00071E0CE01DF91CF91FF90EF90DF90CF907A
:100AB000BF90AF909F908F907F906F905F904F907E
:100AC0000C9466042FEF3FEF4FE75FECC701B601D0
:100AD0000E94E30A87FDE3CF20E030E0A901C701CF
:100AE000B6010E94E30A87FF0AC06DE2CE010E94B0
:100AF0008D004C01F7FAF094F7F8F09402C0812CC5
:100B0000912CA12C60E070E080E09FE3AB1441F0F9
:100B100020E030E040E251E40E94E80AA394F6CFDE
:100B20009B01AC01C701B6010E94770A2B013C0171
:100B30000E945A0B6B017C010E94890B9B01AC0146
:100B4000C301B2010E94760A2B013C012AE0B701E1
:100B5000A601CE010E948E047C01E80CF91CBB208A
:100B600039F067E271E0CE010E946604E80EF91EDA
:100B7000DB2CDD2029F120E030E040E251E4C3012C
:100B8000B2010E94400C2B013C010E945A0B4B0108
:100B9000A12CB12C2AE0B501A401CE010E948E0443
:100BA000E80EF91EC501B4010E94890B9B01AC013E
:100BB000C301B2010E94760A2B013C01DA94D9CF1D
:100BC000C701DF91CF91FF90EF90DF90CF90BF9062
:100BD000AF909F908F907F906F905F904F9008950F
:100BE0001F920F920FB60F9211242F933F938F9362
:100BF0009F93AF93BF9380913B0290913C02A09151
:100C00003D02B0913E0230913A0223E0230F2D378E
:100C100020F40196A11DB11D05C026E8230F029600
:100C2000A11DB11D20933A0280933B0290933C0298
:100C3000A0933D02B0933E0280913F02909140020A
:100C4000A0914102B09142020196A11DB11D809375
:100C50003F0290934002A0934102B0934202BF91A1
:100C6000AF919F918F913F912F910F900FBE0F9059
:100C70001F9018951F920F920FB60F9211242F9369
:100C80003F934F935F936F937F938F939F93AF9314
:100C9000BF93EF93FF93E0914502F09146023097A6
:100CA00009F451C0968DA685B785858591FF04C04E
:100CB0009C91892329F447C09C91892309F043C062
:100CC000A389B4899C918589809589238C93868991
:100CD00097890197F1F7608D718DA685B785558548
:100CE00038E020E0CB010197F1F7822F90E0959555
:100CF0008795282F4C91452309F02068315091F7B2
:100D0000868D81FD20958091440290E001968F733D
:100D1000992730914302381749F0A0914402B0E07E
:100D2000A650BE4F2C938093440203C0868D8160F1
:100D3000868F828D938D0197F1F7A389B4899C9159
:100D40008589892B8C93FF91EF91BF91AF919F91F2
:100D50008F917F916F915F914F913F912F910F9064
:100D60000FBE0F901F901895CF92DF92EF92FF92D7
:100D70000F931F93E82FF92F05C001501109210986
:100D8000310961F1908196239417B9F305C00150A0
:100D900011092109310911F1908196239413F7CF9C
:100DA000C12CD12CE12CF12C0AC08FEFC81AD80A23
:100DB000E80AF80A0C151D052E053F0579F080811B
:100DC0008623841791F36C2D7D2D8E2D9F2D1F91E1
:100DD0000F91FF90EF90DF90CF90089560E070E06A
:100DE00080E090E01F910F91FF90EF90DF90CF9007
:100DF0000895789484B5826084BD84B5816084BD93
:100E000085B5826085BD85B5816085BD80916E00A8
:100E1000816080936E0010928100809181008260D9
:100E20008093810080918100816080938100809116
:100E300080008160809380008091B1008460809305
:100E4000B1008091B00081608093B00080917A0001
:100E5000846080937A0080917A00826080937A0027
:100E600080917A00816080937A0080917A00806816
:100E700080937A001092C10061E087E00E940B012C
:100E800060E087E00E94BF0060E088E00E940B0104
:100E900061E08DE00E940B0162E08DE492E00E942F
:100EA0006E0362E871E08DE492E00E94660461E006
:100EB00080E00E94110469E271E08DE492E00E94FA
:100EC00066041092800210927F0210927E021092AD
:100ED0007D0210927C0210927B028FE190E0909351
:100EE00082028093810290917102963108F057C07E
:100EF00021E030E030937C0220937B022DE130E052
:100F000030937E0220937D022DE030E0309380020A
:100F100020937F0220916800983050F031E09E309D
:100F200008F430E081E001C0880F3A95EAF701C08B
:100F300084E0822B80936800983038F09E3040F037
:100F4000963148F020E030E008C02DE630E005C0E2
:100F50002BE630E002C02CE630E03093790220939B
:100F60007802983030F481E001C0880F9A95EAF752
:100F70000EC0292F30E09E3018F42850310902C0ED
:100F80002E50310981E001C0880F2A95EAF780933D
:100F90007A0280918102909182020197F1F780910B
:100FA0007F0290918002892B21F1809145029091DE
:100FB000460222E085369207E1F0009711F00E9488
:100FC000B902809183028E7F809383021092440243
:100FD0001092430285E692E0909346028093450288
:100FE000E0917802F0917902908180917A02892BC8
:100FF00080838AE391E00E947B0483E991E00E9470
:101000007B048AE391E00E947B049BE3E92E9FE14D
:10101000F92E20E0C22E20E0D22E01E010E085E67D
:1010200092E00E948002181619065CF585E692E0AF
:101030000E949802C82F682F85E692E00E948D00DA
:1010400068E171E085E692E00E946604C13329F40C
:1010500010934C0200934B02E2CFC23369F0C333CA
:1010600029F410934A0200934902D9CFC033B9F64C
:1010700010924A021092490210924C0210924B02B6
:10108000CECF61E08DE492E00E946B03C70101972F
:10109000F1F760E080E00E9411040E945E01AB0164
:1010A000BC0122E08DE492E00E940D056FED8DE41D
:1010B00092E00E948D0061E08AE00E94110480E0CD
:1010C0000E944701BC01990F880B990B0E948B0B62
:1010D00020E030E048EC52E40E94400C20E030EC8C
:1010E0004FE754E40E94E80AAB01BC0122E08DE422
:1010F00092E00E940D0565E28DE492E00E948D0071
:1011000061E080E00E9411040E942604AB01BC0152
:1011100022E08DE492E00E940D0565EE71E08DE421
:1011200092E00E94660460E089E00E94110469EE8A
:1011300071E08DE492E00E94660460914B02709130
:101140004C028DE492E00E94D7046CEE71E08DE4D5
:1011500092E00E9466046091490270914A028DE417
:1011600092E00E94D7040E945E01AB01BC0122E024
:1011700085E692E00E940D0580EF91E00E947B04DD
:1011800081E00E944701BC01990F880B990B0E94D6
:101190008B0B20E030E040EA50E40E94400C20E05D
:1011A00030EC4FE754E40E94E80AAB01BC0122E0B6
:1011B00085E692E00E940D0582EF91E00E947B049B
:1011C00080E00E944701BC01990F880B990B0E9497
:1011D0008B0B20E030E048EC52E40E94400C20E011
:1011E00030EC4FE754E40E94E80AAB01BC0122E076
:1011F00085E692E00E940D0584EF91E00E947B0459
:101200000E942604AB01BC0122E085E692E00E9428
:101210000D0587EE91E00E947B0460914B02709176
:101220004C0285E692E00E94D70486EF91E00E948E
:101230007B046091490270914A0285E692E00E9427
:10124000D70488EF91E00E947B048091490290913D
:101250004A02019731F48091470280FF02C061E0A9
:1012600001C060E08DE00E94BF00A0904B02B090F2
:101270004C0281E0A816B10451F40E94260420E03B
:1012800030E040E251E40E943B0C1816BCF1809122
:10129000470290914802019690934802809347023A
:1012A0000E94EE012B013C0184EF882E9924939437
:1012B000A12CB12C0E94EE01DC01CB01841995090F
:1012C000A609B709883E9340A105B10558F021E071
:1012D000821A9108A108B10888EE480E83E0581ED2
:1012E000611C711C81149104A104B10419F7C1148B
:1012F000D10409F494CE0E94000091CEB0924A022B
:10130000A0924902C4CF1092500210924F0284E082
:1013100091E090934E0280934D028CE080935102B5
:101320008FEF809352028BE0809353028AE0809388
:10133000540284E08093550283E08093560282E059
:1013400080935702109258021092590210925A023A
:1013500010925B0210925C0261E08DE492E00E94C8
:101360006E03109268021092670288EE93E0A0E08C
:10137000B0E08093690290936A02A0936B02B093ED
:101380006C028CE091E0909366028093650210926B
:101390007C0210927B0210927E0210927D021092CB
:1013A000800210927F02109282021092810260915C
:1013B00083026E7F6D7F609383026695617081E02A
:1013C00068270E94BF0061E081E00E940B01EFEA04
:1013D000F0E0E491E0937502EBE9F0E0E491F0E0F5
:1013E000EE0FFF1FEE58FF4F859194919093770277
:1013F0008093760260E080E00E940B01809183027E
:1014000081FD04C061E080E00E94BF001092710283
:10141000EEEAF0E0E491E0937202EAE9F0E0E491B0
:10142000F0E0EE0FFF1FE057FF4F859194919093EE
:1014300074028093730208958CE091E090936602A9
:101440008093650285E692E00C94B90297FB072E23
:1014500016F4009407D077FD09D00E945C0A07FCBF
:1014600005D03EF4909581959F4F089570956195B4
:101470007F4F0895A1E21A2EAA1BBB1BFD010DC0D0
:10148000AA1FBB1FEE1FFF1FA217B307E407F50734
:1014900020F0A21BB30BE40BF50B661F771F881F10
:1014A000991F1A9469F760957095809590959B01A6
:1014B000AC01BD01CF010895AA1BBB1B51E107C0C0
:1014C000AA1FBB1FA617B70710F0A61BB70B881FD4
:1014D000991F5A95A9F780959095BC01CD01089563
:1014E000EE0FFF1F0590F491E02D09945058BB2793
:1014F000AA270E948E0A0C94010C0E94F30B38F06C
:101500000E94FA0B20F039F49F3F19F426F40C9452
:10151000F00B0EF4E095E7FB0C94EA0BE92F0E9428
:10152000120C58F3BA17620773078407950720F067
:1015300079F4A6F50C94340C0EF4E0950B2EBA2F2A
:10154000A02D0B01B90190010C01CA01A0011124C9
:10155000FF27591B99F0593F50F4503E68F11A1675
:10156000F040A22F232F342F4427585FF3CF469506
:1015700037952795A795F0405395C9F77EF41F1628
:10158000BA0B620B730B840BBAF09150A1F0FF0FF2
:10159000BB1F661F771F881FC2F70EC0BA0F621FDE
:1015A000731F841F48F4879577956795B795F795CE
:1015B0009E3F08F0B0CF9395880F08F09927EE0F63
:1015C0009795879508950E94C60B08F481E00895C9
:1015D0000E94FC0A0C94010C0E94FA0B58F00E9425
:1015E000F30B40F029F45F3F29F00C94EA0B511102
:1015F0000C94350C0C94F00B0E94120C68F3992398
:10160000B1F3552391F3951B550BBB27AA276217FE
:101610007307840738F09F5F5F4F220F331F441F0B
:10162000AA1FA9F335D00E2E3AF0E0E832D091503F
:101630005040E695001CCAF72BD0FE2F29D0660F2C
:10164000771F881FBB1F261737074807AB07B0E86F
:1016500009F0BB0B802DBF01FF2793585F4F3AF075
:101660009E3F510578F00C94EA0B0C94350C5F3FCB
:10167000E4F3983ED4F3869577956795B795F795FB
:101680009F5FC9F7880F911D9695879597F90895E3
:10169000E1E0660F771F881FBB1F6217730784077F
:1016A000BA0720F0621B730B840BBA0BEE1F88F78E
:1016B000E09508950E941A0C88F09F5798F0B92F72
:1016C0009927B751B0F0E1F0660F771F881F991F77
:1016D0001AF0BA95C9F714C0B13091F00E94340CD9
:1016E000B1E008950C94340C672F782F8827B85FE9
:1016F00039F0B93FCCF3869577956795B395D9F7CF
:101700003EF490958095709561957F4F8F4F9F4FD8
:101710000895E89409C097FB3EF4909580957095E4
:1017200061957F4F8F4F9F4F9923A9F0F92F96E92D
:10173000BB279395F695879577956795B795F111A2
:10174000F8CFFAF4BB0F11F460FF1BC06F5F7F4F3F
:101750008F4F9F4F16C0882311F096E911C0772351
:1017600021F09EE8872F762F05C0662371F096E85A
:10177000862F70E060E02AF09A95660F771F881F29
:10178000DAF7880F9695879597F90895990F0008CD
:10179000550FAA0BE0E8FEEF16161706E807F90743
:1017A000C0F012161306E407F50798F0621B730BDE
:1017B000840B950B39F40A2661F0232B242B252B5F
:1017C00021F408950A2609F4A140A6958FEF811D02
:1017D000811D089597F99F6780E870E060E00895A3
:1017E0009FEF80EC089500240A9416161706180639
:1017F0000906089500240A94121613061406050615
:101800000895092E0394000C11F4882352F0BB0FA5
:1018100040F4BF2B11F460FF04C06F5F7F4F8F4F08
:101820009F4F089557FD9058440F551F59F05F3F43
:1018300071F04795880F97FB991F61F09F3F79F0F2
:1018400087950895121613061406551FF2CF469574
:10185000F1DF08C0161617061806991FF1CF8695F6
:101860007105610508940895E894BB2766277727DA
:10187000CB0197F908950E94C60B08F48FEF0895E5
:101880000E94530C0C94010C0E94F30B38F00E9440
:10189000FA0B20F0952311F00C94EA0B0C94F00B4A
:1018A00011240C94350C0E94120C70F3959FC1F317
:1018B000950F50E0551F629FF001729FBB27F00DFE
:1018C000B11D639FAA27F00DB11DAA1F649F662753
:1018D000B00DA11D661F829F2227B00DA11D621FA2
:1018E000739FB00DA11D621F839FA00D611D221F5C
:1018F000749F3327A00D611D231F849F600D211D40
:10190000822F762F6A2F11249F5750409AF0F1F0C2
:1019100088234AF0EE0FFF1FBB1F661F771F881F2B
:1019200091505040A9F79E3F510580F00C94EA0B6E
:101930000C94350C5F3FE4F3983ED4F3869577958D
:101940006795B795F795E7959F5FC1F7FE2B880FD1
:10195000911D9695879597F908950E94C60B880B5F
:10196000990B089581E090E0F8940C94B70C10E086
:10197000C2E6D0E004C0FE010E94700A2196C33680
:08198000D107C9F7F894FFCF6D
:101988000000000065039400000000002C02940091
:101998008002980213022B020D0A006E616E006924
:1019A8006E66006F7666002E0020202069526F6FE9
:1019B8006D2076312E30202020002D2D2D2D2D2D1F
:1019C8002D2D2D2D2D2D2D2D2D2D2D2D2D2D2D2D3F
:1019D8002D2D2D2D2D2D2D2D2D2D2D2D2D2D2D2D2F
:1019E8002D2D2D2D2D2D2D2D2D2D2D2D2D2D2D2D1F
:1019F8002D2D2D2D2D2D2D2D2D2D2D2D2D2D2D2D0F
:101A08002D2D2D2D2D2D2D2D2D2D2D2D2D2D2D2DFE
:101A18002D2D0020202020202020202020202020C4
:101A28002020202020202020202020202020695332
:101A38006572766572202D2069526F6F6D2044653E
:101A48007669636573202D206953656E736F7273B1
:101A5800202020202020202020202020202020207E
:101A6800202020200020636D00413A0020423A00E7
:0A1A7800740076006C00610062004B
:00000001FF
