:100000000C9463000C948B000C948B000C9458059A
:100010000C9458050C9458050C948B000C948B0090
:100020000C948B000C948B000C948B000C948B0024
:100030000C948B000C948B000C948B000C948B0014
:100040000C940E050C948B000C9419040C94F3037F
:100050000C948B000C948B000C948B000C948B00F4
:100060000C948B000C948B000000000024002700EF
:100070002A0000000008000201000003040700003D
:1000800000000000000000000000250028002B00F8
:1000900000000000230026002900040404040404D6
:1000A0000404020202020202030303030303010227
:1000B00004081020408001020408102001020408F6
:1000C000102015080B0811241FBECFEFD8E0DEBFAB
:1000D000CDBF12E0A0E0B1E0ECE0F1E202C005909B
:1000E0000D92AA32B107D9F723E0AAE2B2E001C02B
:1000F0001D92A535B207E1F710E0C2E6D0E004C0DA
:100100002197FE010E94EB0BC136D107C9F70E946F
:10011000F6080C9479100C940000CF92DF92EF92C5
:10012000FF920F931F93CF93DF936C017A018B01A2
:10013000C0E0D0E0CE15DF0589F0D8016D918D01CA
:10014000D601ED91FC910190F081E02DC601099559
:10015000892B11F47E0102C02196ECCFC701DF91FB
:10016000CF911F910F91FF90EF90DF90CF90089566
:10017000FC01918D828D981761F0828DDF01A80FAF
:10018000B11D5D968C91928D9F5F9F73928F90E0D1
:1001900008958FEF9FEF0895FC01918D828D981740
:1001A00031F0828DE80FF11D858D90E008958FEF7D
:1001B0009FEF0895FC01918D228D892F90E0805C46
:1001C0009F4F821B91098F739927089587E792E0CB
:1001D0000E94DA0021E0892B09F420E0822F0895A3
:1001E000FC01848DDF01A80FB11DA35ABF4F2C91D4
:1001F000848D90E001968F739927848FA689B789A3
:100200002C93A089B1898C9180648C93938D848D7B
:10021000981306C00288F389E02D80818F7D80834A
:100220000895EF92FF920F931F93CF93DF93EC010A
:1002300081E0888F9B8D8C8D981305C0E889F989A2
:10024000808185FD24C0F62E0B8D10E00F5F1F4FBF
:100250000F731127E02E8C8DE8120CC00FB607FC2F
:10026000FACFE889F989808185FFF5CFCE010E9418
:10027000F000F1CF8B8DFE01E80FF11DE35AFF4F27
:10028000F0820B8FEA89FB898081806207C0EE894A
:10029000FF896083E889F98980818064808381E0B7
:1002A00090E0DF91CF911F910F91FF90EF90089513
:1002B000CF93DF93EC01888D8823C9F0EA89FB890D
:1002C000808185FD05C0A889B9898C9186FD0FC004
:1002D0000FB607FCF5CF808185FFF2CFA889B989D9
:1002E0008C9185FFEDCFCE010E94F000E7CFDF912A
:1002F000CF91089580E090E0892B29F00E94E600DC
:1003000081110C94000008952091750230917602BD
:100310002817390771F4909173028091740298172D
:1003200041F0E0917302F0E0E65DFD4F808190E0E6
:1003300008958FEF9FEF089508951F93CF93DF9354
:10034000DC015C962D913C915D972115310539F4C6
:1003500081E090E013969C938E9312973DC0519646
:10036000ED91FC91529750969C915097892F8095D2
:100370001FB75E964C915E9741FB772770F941FD60
:100380006095F8944081772311F0492B01C04823F0
:100390004083E9012197F1F748E0508160FF02C0F6
:1003A000592B01C058235083E9012197F1F7669535
:1003B000415099F7772321F090818923808303C0EE
:1003C0008081982B90831FBF5C968D919C915D9747
:1003D0000197F1F721E030E0C901DF91CF911F9142
:1003E000089520917502309176022817390771F42B
:1003F000809174022091730290E0805C9F4F821B79
:10040000910960E470E00E94A10B089580E090E003
:100410000895209175023091760228173907B9F4B2
:100420009091730280917402981789F0E0917302A1
:10043000F0E0E65DFD4F80812091730230E02F5F98
:100440003F4F2F7333272093730290E008958FEF6F
:100450009FEF08950E94000FFC0124813581232B1A
:1004600031F421E061157105A1F0FB0108C0FC0128
:10047000808191816115710531F421E0FC01808159
:10048000882339F005C00E940E0F21E0892B09F066
:1004900020E0822F08950F931F93CF93DF93EC01F9
:1004A00088819981009729F02A813B812617370797
:1004B00088F48B016F5F7F4F0E94360E009761F0CA
:1004C000998388831B830A832C813D81232B11F41C
:1004D000FC01108281E001C080E0DF91CF911F918B
:1004E0000F910895CF93DF93EC0188819981009754
:1004F00011F00E949E0D198218821D821C821B829F
:100500001A82DF91CF910895EF92FF920F931F937C
:10051000CF93DF93EC01FB0186179707B9F00081B9
:1005200011810115110539F0E480F580B7010E94B1
:100530004B02811104C0CE010E94720207C0FD82ED
:10054000EC82B801888199810E94170FCE01DF915A
:10055000CF911F910F91FF90EF9008956115710554
:1005600079F0FB0101900020E9F73197AF01461BBC
:10057000570BDC01ED91FC910280F381E02D099491
:1005800080E090E008954F925F926F927F92EF9299
:10059000FF920F931F93CF93DF93CDB7DEB7A19751
:1005A0000FB6F894DEBF0FBECDBF7C01FA01CB01C0
:1005B00019A2223008F42AE08E010F5D1F4F422E4F
:1005C000512C612C712CBF01A30192010E94B50B2B
:1005D000F901CA01015011096A3014F4605D01C0CB
:1005E000695CD8016C93232B242B252B61F7B80170
:1005F000C7010E94AE02A1960FB6F894DEBF0FBEEF
:10060000CDBFDF91CF911F910F91FF90EF907F9021
:100610006F905F904F9008954F925F926F927F928C
:100620008F929F92AF92BF92CF92DF92EF92FF9202
:10063000CF93DF93EC016A017B01B22E9A01AB01EB
:10064000C701B6010E94040D882319F06EE271E023
:1006500027C026013701E89477F82FEF3FEF4FE7E7
:100660005FE7C301B2010E94040D81110DC02FEF9D
:100670003FEF4FE75FE7C301B2010E941E0F18165C
:100680001CF462E371E00CC02FEF3FEF4FE75FE433
:10069000C701B6010E94FF0C18169CF466E371E0D6
:1006A000CE01DF91CF91FF90EF90DF90CF90BF9080
:1006B000AF909F908F907F906F905F904F900C9431
:1006C000AE022FEF3FEF4FE75FECC701B6010E948C
:1006D0001E0F87FDE3CF20E030E0A901C701B6017E
:1006E0000E941E0F87FF0EC0E881F9810190F08102
:1006F000E02D6DE2CE0109954C01F7FAF094F7F880
:10070000F09402C0812C912CA12C60E070E080E07C
:100710009FE3AB1441F020E030E040E251E40E945E
:100720005E0CA394F6CF9B01AC01C701B6010E94F9
:10073000F20B2B013C010E94D00C6B017C010E944A
:10074000230F9B01AC01C301B2010E94F10B2B01ED
:100750003C012AE0B701A601CE010E94C3027C0140
:10076000E80CF91CBB2039F06AE371E0CE010E946D
:10077000AE02E80EF91EDB2CDD2029F120E030E08E
:1007800040E251E4C301B2010E94840F2B013C01FD
:100790000E94D00C4B01A12CB12C2AE0B501A40180
:1007A000CE010E94C302E80EF91EC501B4010E94E9
:1007B000230F9B01AC01C301B2010E94F10B2B017D
:1007C0003C01DA94D9CFC701DF91CF91FF90EF9030
:1007D000DF90CF90BF90AF909F908F907F906F9061
:1007E0005F904F9008951F920F920FB60F921124B1
:1007F0002F933F934F935F936F937F938F939F9329
:10080000AF93BF93EF93FF9387E792E00E94F000CE
:10081000FF91EF91BF91AF919F918F917F916F91D8
:100820005F914F913F912F910F900FBE0F901F90AE
:1008300018951F920F920FB60F9211242F938F933A
:100840009F93EF93FF93E0918702F091880280815C
:10085000E0918D02F0918E0282FD12C09081809114
:1008600090028F5F8F7320919102821751F0E09177
:100870009002F0E0E958FD4F958F8093900201C0FF
:100880008081FF91EF919F918F912F910F900FBEDB
:100890000F901F90189590E0FC01EE58FF4F349197
:1008A000FC01E255FF4F2491FC01E656FF4FE49115
:1008B000EE2309F43BC0332339F1333091F038F49F
:1008C0003130A9F0323001F584B58F7D12C0373058
:1008D00091F03830A1F03430B9F4809180008F7DF0
:1008E00003C0809180008F77809380000DC084B515
:1008F0008F7784BD09C08091B0008F7703C080914D
:10090000B0008F7D8093B000F0E0EE0FFF1FEA573C
:10091000FF4FA591B4918FB7F894EC91611103C08A
:1009200020952E2301C02E2B2C938FBF0895CF939B
:10093000DF93EC0160E08E810E944B0461E08E81C8
:100940000E944B0460E08E810E944B048BE891E092
:100950000197F1F7DF91CF910895CF93DF9390E066
:10096000FC01E255FF4F2491FC01E656FF4F8491B4
:10097000882361F190E0880F991FFC01E859FF4F2F
:10098000C591D491FC01EA57FF4FA591B491611133
:1009900009C09FB7F8948881209582238883EC91C1
:1009A0002E230BC0623061F49FB7F8943881822FF8
:1009B000809583238883EC912E2B2C939FBF06C0B8
:1009C0008FB7F894E8812E2B28838FBFDF91CF91CA
:1009D00008953FB7F89480916F0290917002A091B2
:1009E0007102B091720226B5A89B05C02F3F19F085
:1009F0000196A11DB11D3FBFBA2FA92F982F88279F
:100A0000820F911DA11DB11DBC01CD0142E0660FF9
:100A1000771F881F991F4A95D1F708951F920F924B
:100A20000FB60F9211242F933F938F939F93AF9301
:100A3000BF9380916B0290916C02A0916D02B09176
:100A40006E0230916A0223E0230F2D3720F40196C5
:100A5000A11DB11D05C026E8230F0296A11DB11DE1
:100A600020936A0280936B0290936C02A0936D02B4
:100A7000B0936E0280916F0290917002A09171020A
:100A8000B09172020196A11DB11D80936F029093E7
:100A90007002A0937102B0937202BF91AF919F91C7
:100AA0008F913F912F910F900FBE0F901F9018952F
:100AB0001F920F920FB60F9211242F933F934F93D3
:100AC0005F936F937F938F939F93AF93BF93EF93B6
:100AD000FF93E0917502F0917602309709F451C0CE
:100AE000968DA685B785858591FF04C09C91892345
:100AF00029F447C09C91892309F043C0A389B48994
:100B00009C918589809589238C9386899789019703
:100B1000F1F7608D718DA685B785558538E020E0A9
:100B2000CB010197F1F7822F90E095958795282FBB
:100B30004C91452309F02068315091F7868D81FD55
:100B400020958091740290E001968F7399273091DF
:100B50007302381749F0A0917402B0E0A65DBD4F52
:100B60002C938093740203C0868D8160868F828D62
:100B7000938D0197F1F7A389B4899C918589892B7D
:100B80008C93FF91EF91BF91AF919F918F917F9146
:100B90006F915F914F913F912F910F900FBE0F90EA
:100BA0001F901895E0917502F0917602E817F90709
:100BB00069F4A389B4899C918589809589238C9354
:100BC000109276021092750281E0089580E00895F7
:100BD000CF92DF92EF92FF920F931F93CF93DF9309
:100BE0007C016C0187E0C80ED11CC0E0D0E0062F6C
:100BF00010E0B8010C2E02C0759567950A94E2F7D3
:100C00006170F60181916F010E944B042196C430FE
:100C1000D10579F7C701DF91CF911F910F91FF9017
:100C2000EF90DF90CF900C949704CF92DF92EF92E9
:100C3000FF920F931F93CF93DF93EC01F62E642F57
:100C40008C810E944B048D818F3F19F060E00E94DF
:100C50004B048F850F2D10E084FF25C06E0187E0C7
:100C6000C80ED11CE12CF12CB8010E2C02C07595D8
:100C700067950A94E2F76170F60181916F010E9415
:100C80004B04FFEFEF1AFF0A88E0E816F10461F762
:100C9000CE01DF91CF911F910F91FF90EF90DF90E8
:100CA000CF900C949704B80184E0759567958A9568
:100CB000E1F7CE010E94E8056F2DCE01DF91CF91C3
:100CC0001F910F91FF90EF90DF90CF900C94E8056B
:100CD00041E00E94150681E090E0089540E00C9408
:100CE00015068F929F92AF92BF92CF92DF92EF92B2
:100CF000FF9282E480937C0080917A0080648093EC
:100D00007A0080917A0086FDFCCF60917800809116
:100D1000790070E0782B072E000C880B990B0E944D
:100D2000250F20E030E040EA50E40E94840F20E0EC
:100D300030EC4FE754E40E945E0C9B01AC0160E094
:100D400070EE8BE296E40E945E0C20E030E849E011
:100D500055E40E94F10B6B017C0121E538E045E48C
:100D60005BE20E94840FA70196010E94840FA701F5
:100D700096010E94840FA70196010E94840F4B01E7
:100D80005C012FE530E749E851E3C701B6010E9455
:100D9000840FA70196010E94840FA70196010E946B
:100DA000840F9B01AC01C501B4010E94F10B4B0102
:100DB0005C012CE933E549EC56E3C701B6010E941A
:100DC000840FA70196010E94840F9B01AC01C5010D
:100DD000B4010E94F10B4B015C0121E431EF43EEC1
:100DE0005DE3C701B6010E94840F9B01AC01C50100
:100DF000B4010E94F20B27ED33EE4AE153E40E9466
:100E0000F10B20E030E040E850E40E94F10BFF904D
:100E1000EF90DF90CF90BF90AF909F908F9008950C
:100E2000EF92FF920F931F93CF93DF93EC01623009
:100E300018F08F8588608F876B8B1C8A80E48D8B80
:100E400080E18E8B80E58F8B61E08C810E94AD0408
:100E50008D818F3F19F061E00E94AD0461E08E81C9
:100E60000E94AD047E0187E0E80EF11C00E010E076
:100E70008F8584FD03C084E090E002C088E090E0AC
:100E8000081719074CF461E0F70181917F010E9476
:100E9000AD040F5F1F4FECCF8BE39DE00197F1F79F
:100EA00060E08C810E944B0460E08E810E944B04C4
:100EB0008D818F3F19F060E00E944B046F8564FDC7
:100EC0001DC063E0CE010E94E8050BE416E4C801F2
:100ED0000197F1F763E0CE010E94E805C801019790
:100EE000F1F763E0CE010E94E80583E592E0019707
:100EF000F1F762E0CE010E94E80516C06062CE0103
:100F00000E946E068BE496E40197F1F76F856062AC
:100F1000CE010E946E0683E592E00197F1F76F859E
:100F20006062CE010E946E066F856062CE010E94F3
:100F30006E0684E0888B6CE0CE010E946E0661E054
:100F4000CE010E946E068BE39FE10197F1F782E0EC
:100F5000898B66E0CE01DF91CF911F910F91FF90B9
:100F6000EF900C946E06CF93DF93BC0184E193E085
:100F70000E94AE02EC016CE371E084E193E00E9418
:100F8000AE028C0F9D1FDF91CF910895CF92DF921B
:100F9000EF92FF920F931F93E82FF92F05C0015096
:100FA00011092109310961F1908196239417B9F350
:100FB00005C0015011092109310911F190819623D1
:100FC0009413F7CFC12CD12CE12CF12C0AC08FEF58
:100FD000C81AD80AE80AF80A0C151D052E053F059F
:100FE00079F080818623841791F36C2D7D2D8E2DD1
:100FF0009F2D1F910F91FF90EF90DF90CF9008955C
:1010000060E070E080E090E01F910F91FF90EF9022
:10101000DF90CF9008958AE191E09093150380933B
:10102000140384E193E00C94D205CF92DF92EF9207
:10103000FF9210927A021092790298EEC92E93E0F4
:10104000D92EE12CF12CC0927B02D0927C02E0924E
:101050007D02F0927E028AE091E090937802809384
:10106000770285EC90E0909384028093830284EC75
:1010700090E0909386028093850280EC90E09093BC
:1010800088028093870281EC90E090938A0280939B
:10109000890282EC90E090938C0280938B0286EC24
:1010A00090E090938E0280938D02109290021092A5
:1010B00091021092920210929302109236031092B3
:1010C00035038AE291E090933403809333038CE0FC
:1010D000809337038FEF809338038BE0809339033D
:1010E0008AE080933A0384E080933B0383E080931B
:1010F0003C0382E080933D0310923E0310923F0335
:1011000010924003109241031092420361E083E386
:1011100093E00E9410071092170310921603C092DA
:101120001803D0921903E0921A03F0921B038AE18C
:1011300091E0909315038093140310922B03109267
:101140002A0310922D0310922C0310922F03109259
:101150002E031092310310923003609132036E7FA0
:101160006D7F609332036695617081E068270E940D
:101170004B0461E081E00E94AD04EFEAF0E0E4910D
:10118000E0932403EBE9F0E0E491F0E0EE0FFF1FC1
:10119000EA57FF4F859194919093260380932503FE
:1011A00060E080E00E94AD048091320381FD04C0C4
:1011B00061E080E00E944B0410922003EEEAF0E030
:1011C000E491E0932103EAE9F0E0E491F0E0EE0F2E
:1011D000FF1FE057FF4F85919491909323038093D5
:1011E0002203FF90EF90DF90CF900895CF93DF938D
:1011F000CDB7DEB72E970FB6F894DEBF0FBECDBFCA
:10120000789484B5826084BD84B5816084BD85B5E1
:10121000826085BD85B5816085BD80916E008160ED
:1012200080936E0010928100809181008260809393
:101230008100809181008160809381008091800095
:101240008160809380008091B10084608093B100C0
:101250008091B00081608093B00080917A008460BA
:1012600080937A0080917A00826080937A008091E6
:101270007A00816080937A0080917A008068809300
:101280007A001092C10061E087E00E94AD0460E046
:1012900087E00E944B0460E088E00E94AD04E0918A
:1012A0008702F091880282E08083E0918302F091CE
:1012B00084021082E0918502F091860280E18083B1
:1012C00010928F02E0918B02F0918C0286E0808375
:1012D000E0918902F0918A02808180618083E091AF
:1012E0008902F0918A02808188608083E09189027E
:1012F000F0918A02808180688083E0918902F09178
:101300008A0280818F7D808362E083E393E00E9484
:10131000100768E971E083E393E00E94AE02E09178
:101320004603E23010F4E15001C0E1E0F0E0ED5C92
:10133000FC4F6489606883E393E00E946E066FE36C
:1013400071E083E393E00E94AE0210922F031092AB
:101350002E0310922D0310922C0310922B03109247
:101360002A038DE991E090933103809330039091AB
:101370002003963108F057C02DEB30E030932B035B
:1013800020932A032BE931E030932D0320932C0383
:101390002CE231E030932F0320932E03209168003C
:1013A000983050F031E09E3008F430E081E001C028
:1013B000880F3A95EAF701C084E0822B8093680099
:1013C000983038F09E3040F0963148F020E030E020
:1013D00008C02DE630E005C02BE630E002C02CE668
:1013E00030E03093280320932703983030F481E0D5
:1013F00001C0880F9A95EAF70EC0292F30E09E3081
:1014000018F42850310902C02E50310981E001C082
:10141000880F2A95EAF780932903809130039091F1
:1014200031030197F1F780912E0390912F03892BBF
:1014300021F1809175029091760223E08431920728
:10144000E1F0009711F00E94D205809132038E7F67
:1014500080933203109274021092730284E193E03D
:101460009093760280937502E0912703F091280310
:10147000908180912903892B808380E591E00E94EF
:10148000B30789EA91E00E94B30780E591E00E94EA
:10149000B307EE24E394F12C3BE3C32E3FE1D32EBC
:1014A00046EB242E40E0342E84E193E00E94F101CB
:1014B000181619060CF096C018861F821A8619860F
:1014C0001C861B8660E070E0CE0107960E944B02EE
:1014D000811105C0CE0107960E94720208C01C86C9
:1014E0001B866EE371E08F8198850E94170F84E15F
:1014F00093E00E940902782E082E000C990B8B5F56
:101500009140C9F11A8219821C821B821E821D829F
:10151000BE01695F7F4FCE0101960E9484027D86E5
:101520001E866D807E80FFEF6F1A7F0AB301CE01A9
:1015300001960E944B02882371F029813A818D81A6
:101540009E81BE01635F7F4F820F931F0E94170F22
:101550007E826D8204C0CE0101960E947202BE019D
:101560006F5F7F4FCE0107960E94840289819A8126
:101570000E949E0D32C06DEF71E0CE0107960E9471
:101580002C02882329F0F0925003E0924F0325C0EB
:1015900067E072E0CE0107960E942C02811119C00B
:1015A00062E172E0CE0107960E942C02882329F0A6
:1015B000F0924E03E0924D0310C06DE172E0CE0157
:1015C00007960E942C02882341F010924E0310923D
:1015D0004D031092500310924F038F8198850E9403
:1015E0009E0D62CF61E083E393E00E946E06C60128
:1015F0000197F1F70E947106AB01BC0122E083E381
:1016000093E00E940C030E947106AB01BC0122E032
:1016100087E792E00E940C036CE371E087E792E0B9
:101620000E94AE0280914D0390914E03019731F4D8
:1016300080914B0380FF02C061E001C060E08DE05B
:101640000E944B0480914F0390915003019709F041
:1016500040C061E087E00E944B0483E290E0019784
:10166000F1F760E087E00E944B04F1016491E2EA47
:10167000F0E0E491F0E0EE0FFF1FE057FF4F85919F
:10168000949100E412E42FE030E0462F0E94C60758
:10169000611571058105910539F0DC01CB010196D9
:1016A000A11DB11DBF7003C080E090E0DC016AE3C2
:1016B00070E00E94A10B072E000C880B990B0E9472
:1016C000250F20E030E040E251E40E94FF0C1816A4
:1016D0009CF180914B0390914C03019690934C03A5
:1016E00080934B030E94E9044B015C0184EF482E78
:1016F00055245394612C712C0E94E904DC01CB0128
:1017000088199909AA09BB09883E9340A105B1052A
:1017100058F0F1E04F1A51086108710828EE820E66
:1017200023E0921EA11CB11C4114510461047104F8
:1017300019F70E947A01B8CEF0924E03E0924D0361
:10174000C8CF97FB072E16F4009407D077FD09D079
:101750000E94D70B07FC05D03EF4909581959F4FD2
:101760000895709561957F4F0895A1E21A2EAA1BE6
:10177000BB1BFD010DC0AA1FBB1FEE1FFF1FA21741
:10178000B307E407F50720F0A21BB30BE40BF50B3E
:10179000661F771F881F991F1A9469F760957095C7
:1017A000809590959B01AC01BD01CF010895AA1BC6
:1017B000BB1B51E107C0AA1FBB1FA617B70710F03C
:1017C000A61BB70B881F991F5A95A9F7809590956E
:1017D000BC01CD010895EE0FFF1F0590F491E02D9F
:1017E00009945058BB27AA270E94090C0C94081092
:1017F0000E94FA0F38F00E94011020F039F49F3F48
:1018000019F426F40C94F70F0EF4E095E7FB0C9412
:10181000F10FE92F0E94191058F3BA1762077307E6
:101820008407950720F079F4A6F50C943B100EF48C
:10183000E0950B2EBA2FA02D0B01B90190010C01E0
:10184000CA01A0011124FF27591B99F0593F50F4F8
:10185000503E68F11A16F040A22F232F342F442750
:10186000585FF3CF469537952795A795F040539548
:10187000C9F77EF41F16BA0B620B730B840BBAF018
:101880009150A1F0FF0FBB1F661F771F881FC2F783
:101890000EC0BA0F621F731F841F48F48795779597
:1018A0006795B795F7959E3F08F0B0CF9395880F51
:1018B00008F09927EE0F9795879508950E94720C6E
:1018C0000C9408100E94011058F00E94FA0F40F08A
:1018D00029F45F3F29F00C94F10F51110C943C1046
:1018E0000C94F70F0E94191068F39923B1F3552354
:1018F00091F3951B550BBB27AA2762177307840723
:1019000038F09F5F5F4F220F331F441FAA1FA9F3B8
:1019100035D00E2E3AF0E0E832D091505040E695A6
:10192000001CCAF72BD0FE2F29D0660F771F881F07
:10193000BB1F261737074807AB07B0E809F0BB0BFA
:10194000802DBF01FF2793585F4F3AF09E3F51050E
:1019500078F00C94F10F0C943C105F3FE4F3983E48
:10196000D4F3869577956795B795F7959F5FC9F7F7
:10197000880F911D9695879597F90895E1E0660F78
:10198000771F881FBB1F621773078407BA0720F0F1
:10199000621B730B840BBA0BEE1F88F7E09508955A
:1019A0000E94211088F09F5798F0B92F9927B751BE
:1019B000B0F0E1F0660F771F881F991F1AF0BA95F3
:1019C000C9F714C0B13091F00E943B10B1E0089506
:1019D0000C943B10672F782F8827B85F39F0B93FF8
:1019E000CCF3869577956795B395D9F73EF49095A6
:1019F0008095709561957F4F8F4F9F4F08950E94FE
:101A0000600F08F48FEF08950E94600F880B990B08
:101A10000895CF93DF938230910510F482E090E037
:101A2000E0915303F091540320E030E0C0E0D0E0B7
:101A3000309711F14081518148175907C0F048177C
:101A4000590761F482819381209719F09B838A83DF
:101A50002BC0909354038093530326C02115310566
:101A600019F04217530718F49A01BE01DF01EF0184
:101A70000280F381E02DDCCF2115310509F1281B0F
:101A8000390B2430310590F412968D919C91139767
:101A90006115710521F0FB019383828304C090934B
:101AA000540380935303FD01329644C0FD01E20FBD
:101AB000F31F81939193225031092D933C933AC0A7
:101AC0002091510330915203232B41F420910201C4
:101AD0003091030130935203209351032091000170
:101AE000309101012115310541F42DB73EB74091E8
:101AF000040150910501241B350BE0915103F09135
:101B00005203E217F307A0F42E1B3F0B28173907E7
:101B100078F0AC014E5F5F4F2417350748F04E0F49
:101B20005F1F50935203409351038193919302C0DE
:101B3000E0E0F0E0CF01DF91CF9108950F931F9384
:101B4000CF93DF93009709F48CC0FC013297138286
:101B5000128200915303109154030115110581F471
:101B600020813181820F931F2091510330915203C4
:101B70002817390779F5F0935203E093510371C0A8
:101B8000D80140E050E0AE17BF0750F412962D91F7
:101B90003C911397AD012115310509F1D901F3CF1E
:101BA0009D01DA013383228360817181860F971F43
:101BB0008217930769F4EC0128813981260F371FBA
:101BC0002E5F3F4F318320838A819B819383828361
:101BD000452B29F4F0935403E093530342C013962A
:101BE000FC93EE931297ED01499159919E01240FB8
:101BF000351FE217F30771F480819181840F951FDF
:101C0000029611969C938E938281938113969C9356
:101C10008E931297E0E0F0E0D80112968D919C919E
:101C20001397009719F0F8018C01F6CF8D919C91D4
:101C300098012E5F3F4F820F931F209151033091E7
:101C400052032817390769F4309729F41092540386
:101C50001092530302C01382128210935203009316
:101C60005103DF91CF911F910F910895A0E0B0E053
:101C7000ECE3FEE00C944610EC01009721F4CB015C
:101C80000E94090DB8C0FC01E60FF71F9C0122500D
:101C90003109E217F30708F4ACC0D9010D911C918A
:101CA000119706171707B0F00530110508F49FC00B
:101CB000C80104978617970708F499C002501109C4
:101CC000061B170B019311936D937C93CF010E9418
:101CD0009E0D8DC05B01A01AB10A4C01800E911EB1
:101CE000A0915303B091540340E050E0E12CF12C5B
:101CF000109709F44AC0A815B905D1F56D907C90EC
:101D00001197630182E0C80ED11CCA14DB0480F174
:101D1000A3014A195B096A0182E0C80ED11C129620
:101D2000BC9012971396AC91B5E0CB16D10440F05D
:101D3000B282A38351834083D9016D937C930AC0FF
:101D40000E5F1F4FC301800F911FF90191838083A4
:101D5000EB2DFA2FE114F10431F0D7011396FC9327
:101D6000EE93129744C0F0935403E09353033FC0A3
:101D70008D919C9111974817590708F4AC017D018A
:101D800012960D90BC91A02DB3CF809151039091EC
:101D9000520388159905E1F446175707C8F4809156
:101DA000000190910101009741F48DB79EB74091D9
:101DB000040150910501841B950BE817F907C8F43D
:101DC000F0935203E0935103F901718360830FC0D4
:101DD000CB010E94090D7C01009759F0A801BE01BA
:101DE0000E94050FCE010E949E0DC70104C0CE01C6
:101DF00002C080E090E0CDB7DEB7EEE00C94621058
:101E000081E090E0F8940C947910FB01DC0102C0B1
:101E100001900D9241505040D8F70895FB01DC012C
:101E20008D91019080190110D9F3990B0895FB0150
:101E3000DC0101900D920020E1F708950E94600FEF
:101E400008F481E00895E89409C097FB3EF490956A
:101E50008095709561957F4F8F4F9F4F9923A9F083
:101E6000F92F96E9BB279395F69587957795679512
:101E7000B795F111F8CFFAF4BB0F11F460FF1BC056
:101E80006F5F7F4F8F4F9F4F16C0882311F096E9E9
:101E900011C0772321F09EE8872F762F05C0662397
:101EA00071F096E8862F70E060E02AF09A95660F50
:101EB000771F881FDAF7880F9695879597F9089509
:101EC000990F0008550FAA0BE0E8FEEF161617064B
:101ED000E807F907C0F012161306E407F50798F0B3
:101EE000621B730B840B950B39F40A2661F0232BCC
:101EF000242B252B21F408950A2609F4A140A69548
:101F00008FEF811D811D08950E94970F0C9408107A
:101F10000E94FA0F38F00E94011020F0952311F072
:101F20000C94F10F0C94F70F11240C943C100E94A8
:101F3000191070F3959FC1F3950F50E0551F629FE4
:101F4000F001729FBB27F00DB11D639FAA27F00D12
:101F5000B11DAA1F649F6627B00DA11D661F829F39
:101F60002227B00DA11D621F739FB00DA11D621F1E
:101F7000839FA00D611D221F749F3327A00D611D3B
:101F8000231F849F600D211D822F762F6A2F11241D
:101F90009F5750409AF0F1F088234AF0EE0FFF1F50
:101FA000BB1F661F771F881F91505040A9F79E3FA7
:101FB000510580F00C94F10F0C943C105F3FE4F35A
:101FC000983ED4F3869577956795B795F795E795FD
:101FD0009F5FC1F7FE2B880F911D9695879597F906
:101FE000089597F99F6780E870E060E008959FEF9B
:101FF00080EC089500240A941616170618060906A0
:10200000089500240A94121613061406050608956E
:10201000092E0394000C11F4882352F0BB0F40F4F6
:10202000BF2B11F460FF04C06F5F7F4F8F4F9F4F36
:10203000089557FD9058440F551F59F05F3F71F0B8
:102040004795880F97FB991F61F09F3F79F087951F
:102050000895121613061406551FF2CF4695F1DFA8
:1020600008C0161617061806991FF1CF8695710538
:10207000610508940895E894BB2766277727CB016C
:1020800097F908952F923F924F925F926F927F92AD
:102090008F929F92AF92BF92CF92DF92EF92FF9278
:1020A0000F931F93CF93DF93CDB7DEB7CA1BDB0B24
:1020B0000FB6F894DEBF0FBECDBF09942A883988C9
:1020C00048885F846E847D848C849B84AA84B984D0
:1020D000C884DF80EE80FD800C811B81AA81B981DC
:1020E000CE0FD11D0FB6F894DEBF0FBECDBFED01F0
:1020F000089510E0C2E6D0E004C0FE010E94EB0BA0
:0C2100002196C336D107C9F7F894FFCF31
:10210C000000550380000000000011018D00DA0072
:10211C00B800CC005801000000009D018D00F101B9
:10212C00090284019C010000000068068D006E61AC
:10213C006E00696E66006F7666002E000D0A002038
:10214C00202069526F6F6D2076312E3020202000B8
:10215C002D2D2D2D2D2D2D2D2D2D2D2D2D2D2D2DA3
:10216C002D2D2D2D2D2D2D2D2D2D2D2D2D2D2D2D93
:10217C002D2D2D2D2D2D2D2D2D2D2D2D2D2D2D2D83
:10218C002D2D2D2D2D2D2D2D2D2D2D2D2D2D2D2D73
:10219C002D2D2D2D2D2D2D2D2D2D2D2D2D2D2D2D63
:1021AC002D2D2D2D2D2D2D2D0020202020202020DB
:1021BC002020202020202020202020202020202013
:1021CC002020202069536572766572202D2069527B
:1021DC006F6F6D2044657669636573202D2069539C
:1021EC00656E736F72732020202020202020202009
:1021FC0020202020202020202020002F00616C6136
:10220C00726D3A3A6F6E00616C61726D3A3A6F663C
:10221C00660062757A7A65723A3A6F6E0062757A08
:0A222C007A65723A3A6F66660000A8
:00000001FF
