:100000000C9463000C948B000C948B000C94A30450
:100010000C94A3040C94A3040C948B000C948B00FC
:100020000C948B000C948B000C948B000C948B0024
:100030000C948B000C948B000C948B000C948B0014
:100040000C9459040C948B000C948B000C948B0032
:100050000C948B000C948B000C948B000C948B00F4
:100060000C948B000C948B000000000023002600F1
:10007000290000000000240027002A0000000000E2
:10008000250028002B0004040404040404040202D4
:100090000202020203030303030301020408102007
:1000A0004080010204081020010204081020000012
:1000B0000008000201000003040700000000000027
:1000C00000002108590811241FBECFEFD8E0DEBF81
:1000D000CDBF11E0A0E0B1E0E0EEF9E102C0059093
:1000E0000D92AC34B107D9F722E0ACE4B1E001C025
:1000F0001D92A531B207E1F710E0C2E6D0E004C0DE
:100100002197FE010E94C708C136D107C9F70E9496
:100110001D050C94E30C0C940000CF93DF93FC01BD
:10012000138E128E118E108E178A168A8FE190E030
:10013000958F848F8485863108F04DC021E030E0B2
:10014000378B268B2DE130E0318F208F2DE030E092
:10015000338F228F90916800883050F021E08E30EC
:1001600008F420E081E001C0880F2A95EAF701C079
:1001700084E0892B809368009485983038F09E3015
:1001800040F0963148F020E030E008C02DE630E045
:1001900005C02BE630E002C02CE630E0348B238B28
:1001A000983030F481E001C0880F9A95EAF70EC0CC
:1001B000292F30E09E3018F42850310902C02E500B
:1001C000310981E001C0880F2A95EAF7858B848D7B
:1001D000958D0197F1F7828D938D892B21F1A09157
:1001E0000F02B0911002AE17BF07E9F0109751F05F
:1001F0005396CD91DC915497988155968C9180952A
:1002000089238883868D8E7F868F10920E021092AE
:100210000D02F0931002E0930F02A389B4899C9120
:100220008589892B8C93DF91CF910895CF92DF92AE
:10023000EF92FF920F931F93CF93DF936C017A019C
:100240008B01C0E0D0E0CE15DF0589F0D8016D91BB
:100250008D01D601ED91FC910190F081E02DC60158
:100260000995892B11F47E0102C02196ECCFC701BC
:10027000DF91CF911F910F91FF90EF90DF90CF9082
:10028000089590E0FC01E255FF4F3491FC01E656E1
:10029000FF4F2491FC01EA57FF4FE491EE2309F44C
:1002A0003BC0332339F1333091F038F43130A9F0C9
:1002B000323001F584B58F7D12C0373091F038307F
:1002C000A1F03430B9F4809180008F7D03C080911B
:1002D00080008F77809380000DC084B58F7784BDB8
:1002E00009C08091B0008F7703C08091B0008F7DEE
:1002F0008093B000F0E0EE0FFF1FE458FF4FA59190
:10030000B4918FB7F894EC91611103C020952E231E
:1003100001C02E2B2C938FBF0895CF93DF9390E0D5
:10032000FC01E656FF4F2491FC01EA57FF4F8491F0
:10033000882361F190E0880F991FFC01EE58FF4F70
:10034000C591D491FC01E458FF4FA591B49161117E
:1003500009C09FB7F8948881209582238883EC9107
:100360002E230BC0623061F49FB7F8943881822F3E
:10037000809583238883EC912E2B2C939FBF06C0FE
:100380008FB7F894E8812E2B28838FBFDF91CF9110
:1003900008953FB7F8948091910190919201A091B6
:1003A0009301B091940126B5A89B05C02F3F19F089
:1003B0000196A11DB11D3FBFBA2FA92F982F8827E5
:1003C000820F911DA11DB11DBC01CD0142E0660F40
:1003D000771F881F991F4A95D1F708958F929F9292
:1003E000AF92BF92CF92DF92EF92FF926B017C01AE
:1003F0000E94C9014B015C01C114D104E104F10464
:10040000F1F00E94C901DC01CB0188199909AA0900
:10041000BB09883E9340A105B10570F321E0C21AE3
:10042000D108E108F10888EE880E83E0981EA11C2F
:10043000B11CC114D104E104F10419F7DDCFFF9020
:10044000EF90DF90CF90BF90AF909F908F900895E6
:1004500020910F02309110022817390771F4909102
:100460000D0280910E02981741F0E0910D02F0E02C
:10047000E45BFE4F808190E008958FEF9FEF089539
:1004800008951F93CF93DF93DC015C962D913C91EF
:100490005D972115310539F481E090E013969C9326
:1004A0008E9312973DC05196ED91FC9152975096C4
:1004B0009C915097892F80951FB75E964C915E97BF
:1004C00041FB772770F941FD6095F89440817723CF
:1004D00011F0492B01C048234083E9012197F1F72E
:1004E00048E0508160FF02C0592B01C0582350835F
:1004F000E9012197F1F76695415099F7772321F0AB
:1005000090818923808303C08081982B90831FBFB3
:100510005C968D919C915D970197F1F721E030E019
:10052000C901DF91CF911F91089520910F02309161
:1005300010022817390771F480910E0220910D02E4
:1005400090E0805C9F4F821B910960E470E00E9404
:100550007D08089580E090E0089520910F02309189
:10056000100228173907B9F490910D0280910E02FC
:10057000981789F0E0910D02F0E0E45BFE4F808176
:1005800020910D0230E02F5F3F4F2F7333272093D0
:100590000D0290E008958FEF9FEF08952AE031E07B
:1005A000FC0131832083E0910F02F0911002E817E3
:1005B000F90759F4A389B4899C9185898095892389
:1005C0008C931092100210920F0208950F931F93B4
:1005D000CF93DF93EC01162F042F1B821A8288EE33
:1005E00093E0A0E0B0E08C839D83AE83BF838AE07C
:1005F00091E0998388831F8A1E8A198E188E1B8E1C
:100600001A8E1D8E1C8E6E8D6E7F20FB61F96E8F93
:100610006695617081E06827842F0E94410161E046
:10062000802F0E948D01402F50E0FA01E656FF4FC7
:10063000E491E88BFA01EA57FF4FE491F0E0EE0F06
:10064000FF1FE458FF4F859194919A8B898B60E04E
:10065000812F0E948D018E8D81FD04C061E0812F6C
:100660000E9441011C87612F70E0FB01E656FF4F9D
:10067000E491ED87FB01EA57FF4FE491F0E0EE0FC4
:10068000FF1FE859FF4F859194919F878E87DF91D7
:10069000CF911F910F910895009769F0FC0101908F
:1006A0000020E9F73197AF01481B590BBC018EEED2
:1006B00091E00C94160180E090E00895CF93DF93D1
:1006C000FC0144815581608171818EEE91E00E9430
:1006D0001601EC0186E191E00E944C038C0F9D1FF6
:1006E000DF91CF9108958F929F92AF92BF920F9317
:1006F0001F93CF93DF93CDB7DEB7A1970FB6F894D2
:10070000DEBF0FBECDBF19A2423008F44AE08E0111
:100710000F5D1F4F842E912CA12CB12CA5019401AB
:100720000E949108E62FB901CA0101501109EA306F
:1007300014F4E05D01C0E95CD801EC93232B242B79
:10074000252B61F7C8010E944C03A1960FB6F894BF
:10075000DEBF0FBECDBFDF91CF911F910F91BF9034
:10076000AF909F908F9008950E946A0B0F931F93F4
:10077000CF93DF93EC0188819981009729F02A813A
:100780003B812617370788F48B016F5F7F4F0E94EC
:10079000A00A009761F0998388831B830A832C81C8
:1007A0003D81232B11F4FC01108281E001C080E027
:1007B000DF91CF911F910F910895CF93DF93EC01BB
:1007C00088819981009711F00E94080A1982188285
:1007D0001D821C821B821A82DF91CF910895EF92B5
:1007E000FF920F931F93CF93DF93EC01198218822E
:1007F0001B821A821D821C826115710521F18B01F9
:10080000FB0101900020E9F731977F01E61AF70A12
:10081000B7010E94B603811109C0CE01DF91CF91CB
:100820001F910F91FF90EF900C94DD03FD82EC82FD
:10083000B80188819981DF91CF911F910F91FF902D
:10084000EF900C94810BDF91CF911F910F91FF904E
:10085000EF900895EF92FF920F931F93CF93DF9342
:10086000EC01FB0186179707B9F000811181011592
:10087000110539F0E480F580B7010E94B6038111BB
:1008800004C0CE010E94DD0307C0FD82EC82B801E6
:10089000888199810E94810BCE01DF91CF911F91B8
:1008A0000F91FF90EF900895FC01808191810C944D
:1008B000080A1F920F920FB60F9211242F933F93A5
:1008C0008F939F93AF93BF9380918D0190918E01F1
:1008D000A0918F01B091900130918C0123E0230F02
:1008E0002D3720F40196A11DB11D05C026E8230F68
:1008F0000296A11DB11D20938C0180938D019093D0
:100900008E01A0938F01B0939001809191019091FD
:100910009201A0919301B09194010196A11DB11D86
:100920008093910190939201A0939301B0939401CD
:10093000BF91AF919F918F913F912F910F900FBEDB
:100940000F901F9018951F920F920FB60F921124BF
:100950002F933F934F935F936F937F938F939F93C7
:10096000AF93BF93EF93FF93E0910F02F0911002CA
:10097000309709F451C0968DA685B785858591FF7E
:1009800004C09C91892329F447C09C91892309F0D4
:1009900043C0A389B4899C918589809589238C93D0
:1009A000868997890197F1F7608D718DA685B78546
:1009B000558538E020E0CB010197F1F7822F90E0D8
:1009C00095958795282F4C91452309F02068315043
:1009D00091F7868D81FD209580910E0290E0019621
:1009E0008F73992730910D02381749F0A0910E02AC
:1009F000B0E0A45BBE4F2C9380930E0203C0868DA3
:100A00008160868F828D938D0197F1F7A389B489D8
:100A10009C918589892B8C93FF91EF91BF91AF9128
:100A20009F918F917F916F915F914F913F912F9106
:100A30000F900FBE0F901F901895CF93DF93CDB7F7
:100A4000DEB729970FB6F894DEBF0FBECDBF7894FE
:100A500084B5826084BD84B5816084BD85B58260C3
:100A600085BD85B5816085BD80916E008160809374
:100A70006E001092810080918100826080938100DD
:100A800080918100816080938100809180008160ED
:100A9000809380008091B10084608093B100809148
:100AA000B00081608093B00080917A008460809370
:100AB0007A0080917A00826080937A0080917A0037
:100AC000816080937A0080917A00806880937A00B8
:100AD0001092C10061E083E00E948D0161E082E03C
:100AE0000E948D0161E085E00E948D0161E084E05B
:100AF0000E948D0161E089E00E948D018EEE91E0FF
:100B00000E948D0089E191E00E944C0386E191E012
:100B10000E944C038BEC91E00E948D0090E0A92E86
:100B200090E0B92E01E010E02BE0822E912C80E4C1
:100B3000382E30927C0080917A00806480937A0015
:100B400080917A0086FDFCCF6091780080917900D9
:100B500070E0782B072E000C880B990B0E948F0BEE
:100B600020E93EE34AEF5EE30E94EE0B6093EA0168
:100B70007093EB018093EC019093ED018BEC91E08D
:100B80000E949502181619060CF05DC18BEC91E0DD
:100B90000E94AD02282F843709F0C0C06FEB71E0CE
:100BA00085EC91E00E942A0485EC91E00E945E03AE
:100BB0006AE070E080E090E00E94EE01C090EA01FF
:100BC000D090EB01E090EC01F090ED01A7019601CF
:100BD000C701B6010E946E09882319F08BE391E0EA
:100BE0001AC026013701E89477F82FEF3FEF4FE75F
:100BF0005FE7C301B2010E946E0981110FC02FEFA0
:100C00003FEF4FE75FE7C301B2010E94880B181660
:100C10002CF48FE391E00E944C037BC02FEF3FEF59
:100C20004FE75FE4C701B6010E94690918161CF47A
:100C300083E491E0F0CF2FEF3FEF4FE75FECC70188
:100C4000B6010E94880B87FDF3CF20E030E0A901B8
:100C5000C701B6010E94880B87FF0FC0E091EE012B
:100C6000F091EF010190F081E02D6DE28EEE91E0C8
:100C70000995F7FAF094F7F8F0942AE037ED43EA93
:100C80005BE3C701B6010E94CE082B013C010E9424
:100C90003A096B017C010E948D0B9B01AC01C301E1
:100CA000B2010E94CD082B013C014AE0C701B60108
:100CB0000E94730387E491E00E944C0320E030E03F
:100CC00040E251E4C301B2010E94EE0B2B013C0152
:100CD0000E943A096B01E12CF12C4AE0C701B601F0
:100CE0000E947303C701B6010E948D0B9B01AC01EA
:100CF000C301B2010E94CD0820E030E040E251E49F
:100D00000E94EE0B0E943A0980E090E04AE00E94C7
:100D1000730386E191E00E944C0330CF863749F49B
:100D20006FEB71E089EB91E00E942A0489EB91E07E
:100D30002BC08C3649F46FEB71E083EB91E00E949D
:100D40002A0483EB91E020C08D3649F46FEB71E00B
:100D50008DEA91E00E942A048DEA91E015C0813667
:100D600049F46FEB71E087EA91E00E942A0487EA78
:100D700091E00AC0823659F46FEB71E081EA91E0AC
:100D80000E942A0481EA91E00E945E03F7CE1A8253
:100D900019821C821B821E821D826FEB71E0CE01C4
:100DA000019629870E942A0429852F831886ED80C1
:100DB000FE808FEFE81AF80AB701CE0101960E9473
:100DC000B603882371F029813A818D819E81BE010D
:100DD000695F7F4F820F931F0E94810BFE82ED821D
:100DE00004C0CE0101960E94DD03BE016F5F7F4FFC
:100DF0008FEB91E00E942A04CE0101960E945404D8
:100E0000BDCE8EEE91E00E94AD02282FE091EE0162
:100E1000F091EF010190F081E02D682F8EEE91E0CE
:100E20002987099586E191E00E944C0329852433A6
:100E3000B9F480919F019091A001892B61F41093E6
:100E4000A00100939F018EEE91E00E94950218167A
:100E50001906BCF23BC01092A00110929F01F3CF83
:100E6000253381F480919D0190919E01892B29F475
:100E700010939E0100939D01E6CF10929E01109267
:100E80009D01E1CF263381F480919B0190919C01DB
:100E9000892B29F410939C0100939B01D4CF1092CD
:100EA0009C0110929B01CFCF273369F68091990165
:100EB00090919A01892B29F410939A01009399013A
:100EC000C2CF10929A0110929901BDCF4090EA01D1
:100ED0005090EB016090EC017090ED0120E030E06B
:100EE00040EF51E4C301B2010E946909181644F4AD
:100EF00061E089E00E9441019092980180929701FF
:100F0000C0909701D090980181E0C816D10421F4D7
:100F100060E089E00E94410180919F019091A001D1
:100F2000019711F461E001C060E083E00E9441019B
:100F300080919D0190919E01019711F461E001C0A3
:100F400060E082E00E94410180919B0190919C01B0
:100F5000019711F461E001C060E085E00E94410169
:100F60008091990190919A01019711F461E001C07B
:100F700060E084E00E9441018091A5019091A6016A
:100F8000E0909501F0909601892BA9F069E471E059
:100F90008091A1019091A2010E94780B892B59F4B4
:100FA000E0FC05C010939C0100939B0104C01092CB
:100FB0009C0110929B0120E030E040E252E4C3012A
:100FC000B2010E946909181674F4E0FE07C0E0FE41
:100FD00034C010929C0110929B010FC010939C0191
:100FE00000939B010AC020E030E040E252E4C301DC
:100FF000B2010E946909181654F3C114D10449F0D2
:10100000E0FC07C081E0C81AD108D0929801C092D4
:1010100097018FEFE81AF80AF0929601E092950195
:1010200064EF71E080E090E00E94EE01A114B10451
:1010300009F47FCD0E9400007ACDC114D10411F7CC
:10104000E8CF68E171E085EC91E00E94EF0368E190
:1010500071E089EB91E00E94EF0368E171E083EBBE
:1010600091E00E94EF0368E171E08DEA91E00E9457
:10107000EF0368E171E087EA91E00E94EF0368E125
:1010800071E081EA91E00E94EF0368E171E08FEB8B
:1010900091E00E94EF0320E04BE06AE08EEE91E0E9
:1010A0000E94E60220E041E060E08BEC91E00C94CD
:1010B000E6028BEC91E00E94CE028EEE91E00E945F
:1010C000CE028FEB91E00E94540481EA91E00E94ED
:1010D000540487EA91E00E9454048DEA91E00E9452
:1010E000540483EB91E00E94540489EB91E00E9448
:1010F000540485EC91E00C94540497FB072E16F4ED
:10110000009407D077FD09D00E94B30807FC05D0F2
:101110003EF4909581959F4F0895709561957F4F0E
:101120000895A1E21A2EAA1BBB1BFD010DC0AA1F28
:10113000BB1FEE1FFF1FA217B307E407F50720F040
:10114000A21BB30BE40BF50B661F771F881F991FBB
:101150001A9469F760957095809590959B01AC0104
:10116000BD01CF010895AA1BBB1B51E107C0AA1FF7
:10117000BB1FA617B70710F0A61BB70B881F991F38
:101180005A95A9F780959095BC01CD010895EE0F71
:10119000FF1F0590F491E02D09945058BB27AA2712
:1011A0000E94E5080C94720C0E94640C38F00E94B6
:1011B0006B0C20F039F49F3F19F426F40C94610C69
:1011C0000EF4E095E7FB0C945B0CE92F0E94830C76
:1011D00058F3BA17620773078407950720F079F46C
:1011E000A6F50C94A50C0EF4E0950B2EBA2FA02DAD
:1011F0000B01B90190010C01CA01A0011124FF27C4
:10120000591B99F0593F50F4503E68F11A16F040BE
:10121000A22F232F342F4427585FF3CF46953795BD
:101220002795A795F0405395C9F77EF41F16BA0B82
:10123000620B730B840BBAF09150A1F0FF0FBB1F30
:10124000661F771F881FC2F70EC0BA0F621F731F79
:10125000841F48F4879577956795B795F7959E3FD6
:1012600008F0B0CF9395880F08F09927EE0F979567
:10127000879508950E948B0C88F09F5798F0B92F9E
:101280009927B751B0F0E1F0660F771F881F991FBB
:101290001AF0BA95C9F714C0B13091F00E94A50CAC
:1012A000B1E008950C94A50C672F782F8827B85FBC
:1012B00039F0B93FCCF3869577956795B395D9F713
:1012C0003EF490958095709561957F4F8F4F9F4F1D
:1012D00008950E94CA0B08F48FEF08950E94CA0B6C
:1012E000880B990B0895CF93DF938230910510F40A
:1012F00082E090E0E0911302F091140220E030E0EF
:10130000C0E0D0E0309711F1408151814817590772
:10131000C0F04817590761F482819381209719F032
:101320009B838A832BC0909314028093130226C060
:101330002115310519F04217530718F49A01BE011F
:10134000DF01EF010280F381E02DDCCF21153105B3
:1013500009F1281B390B2430310590F412968D9138
:101360009C9113976115710521F0FB019383828392
:1013700004C09093140280931302FD01329644C07E
:10138000FD01E20FF31F81939193225031092D93B8
:101390003C933AC02091110230911202232B41F468
:1013A0002091020130910301309312022093110227
:1013B00020910001309101012115310541F42DB733
:1013C0003EB74091040150910501241B350BE0917B
:1013D0001102F0911202E217F307A0F42E1B3F0B4B
:1013E0002817390778F0AC014E5F5F4F2417350797
:1013F00048F04E0F5F1F50931202409311028193E9
:10140000919302C0E0E0F0E0CF01DF91CF91089529
:101410000F931F93CF93DF93009709F48CC0FC01C7
:101420003297138212820091130210911402011557
:10143000110581F420813181820F931F20911102C7
:10144000309112022817390779F5F0931202E093D0
:10145000110271C0D80140E050E0AE17BF0750F450
:1014600012962D913C911397AD012115310509F18B
:10147000D901F3CF9D01DA01338322836081718129
:10148000860F971F8217930769F4EC012881398131
:10149000260F371F2E5F3F4F318320838A819B8128
:1014A00093838283452B29F4F0931402E093130273
:1014B00042C01396FC93EE931297ED014991599116
:1014C0009E01240F351FE217F30771F4808191818B
:1014D000840F951F029611969C938E93828193811F
:1014E00013969C938E931297E0E0F0E0D801129649
:1014F0008D919C911397009719F0F8018C01F6CF0C
:101500008D919C9198012E5F3F4F820F931F2091E8
:101510001102309112022817390769F4309729F423
:10152000109214021092130202C0138212821093BE
:10153000120200931102DF91CF911F910F91089534
:10154000A0E0B0E0E6EAFAE00C94B00CEC01009701
:1015500021F4CB010E947309B8C0FC01E60FF71F0C
:101560009C0122503109E217F30708F4ACC0D901FD
:101570000D911C91119706171707B0F00530110552
:1015800008F49FC0C80104978617970708F499C00C
:1015900002501109061B170B019311936D937C9355
:1015A000CF010E94080A8DC05B01A01AB10A4C014C
:1015B000800E911EA0911302B091140240E050E001
:1015C000E12CF12C109709F44AC0A815B905D1F502
:1015D0006D907C901197630182E0C80ED11CCA14F3
:1015E000DB0480F1A3014A195B096A0182E0C80E9D
:1015F000D11C1296BC9012971396AC91B5E0CB1605
:10160000D10440F0B282A38351834083D9016D930A
:101610007C930AC00E5F1F4FC301800F911FF90119
:1016200091838083EB2DFA2FE114F10431F0D7017F
:101630001396FC93EE93129744C0F0931402E09338
:1016400013023FC08D919C9111974817590708F4D8
:10165000AC017D0112960D90BC91A02DB3CF80916D
:1016600011029091120288159905E1F44617570767
:10167000C8F48091000190910101009741F48DB769
:101680009EB74091040150910501841B950BE8170A
:10169000F907C8F4F0931202E0931102F901718383
:1016A00060830FC0CB010E9473097C01009759F041
:1016B000A801BE010E946F0BCE010E94080AC7015B
:1016C00004C0CE0102C080E090E0CDB7DEB7EEE00E
:1016D0000C94CC0C81E090E0F8940C94E30CFB01AA
:1016E000DC0102C001900D9241505040D8F708959E
:1016F000FB01DC018D91019080190110D9F3990B48
:101700000895FB01DC0101900D920020E1F708959E
:101710000E94CA0B08F481E00895E89409C097FB81
:101720003EF490958095709561957F4F8F4F9F4FB8
:101730009923A9F0F92F96E9BB279395F6958795FC
:1017400077956795B795F111F8CFFAF4BB0F11F4BF
:1017500060FF1BC06F5F7F4F8F4F9F4F16C0882366
:1017600011F096E911C0772321F09EE8872F762F9C
:1017700005C0662371F096E8862F70E060E02AF0DD
:101780009A95660F771F881FDAF7880F96958795C9
:1017900097F90895990F0008550FAA0BE0E8FEEF9E
:1017A00016161706E807F907C0F012161306E40725
:1017B000F50798F0621B730B840B950B39F40A261E
:1017C00061F0232B242B252B21F408950A2609F4FC
:1017D000A140A6958FEF811D811D08950E94010CE7
:1017E0000C94720C0E94640C38F00E946B0C20F078
:1017F000952311F00C945B0C0C94610C11240C9447
:10180000A60C0E94830C70F3959FC1F3950F50E0D6
:10181000551F629FF001729FBB27F00DB11D639FA2
:10182000AA27F00DB11DAA1F649F6627B00DA11D48
:10183000661F829F2227B00DA11D621F739FB00DEE
:10184000A11D621F839FA00D611D221F749F33275E
:10185000A00D611D231F849F600D211D822F762FF7
:101860006A2F11249F5750409AF0F1F088234AF0D4
:10187000EE0FFF1FBB1F661F771F881F9150504040
:10188000A9F79E3F510580F00C945B0C0C94A60CBC
:101890005F3FE4F3983ED4F3869577956795B795C7
:1018A000F795E7959F5FC1F7FE2B880F911D9695E1
:1018B000879597F9089597F99F6780E870E060E051
:1018C00008959FEF80EC089500240A9416161706D9
:1018D00018060906089500240A9412161306140621
:1018E00005060895092E0394000C11F4882352F084
:1018F000BB0F40F4BF2B11F460FF04C06F5F7F4F3C
:101900008F4F9F4F089557FD9058440F551F59F022
:101910005F3F71F04795880F97FB991F61F09F3FDC
:1019200079F087950895121613061406551FF2CF05
:101930004695F1DF08C0161617061806991FF1CF55
:1019400086957105610508940895E894BB2766277C
:101950007727CB0197F908952F923F924F925F928C
:101960006F927F928F929F92AF92BF92CF92DF92AF
:10197000EF92FF920F931F93CF93DF93CDB7DEB714
:10198000CA1BDB0B0FB6F894DEBF0FBECDBF0994A8
:101990002A88398848885F846E847D848C849B84FF
:1019A000AA84B984C884DF80EE80FD800C811B810D
:1019B000AA81B981CE0FD11D0FB6F894DEBF0FBE3C
:1019C000CDBFED01089510E0C2E6D0E004C0FE01F5
:1019D0000E94C7082196C336D107C9F7F894FFCFF4
:1019E000000015028000000000004102160195026F
:1019F000AD02280240020D0A0053657269616C2035
:101A00006953657276657220436F6E6E65637469A3
:101A10006F6E2053746172746564006E616E00694C
:0C1A20006E66006F7666002E003100003C
:107E0000112484B714BE81FFF0D085E080938100F7
:107E100082E08093C00088E18093C10086E0809377
:107E2000C20080E18093C4008EE0C9D0259A86E02C
:107E300020E33CEF91E0309385002093840096BBD3
:107E4000B09BFECF1D9AA8958150A9F7CC24DD24C4
:107E500088248394B5E0AB2EA1E19A2EF3E0BF2EE7
:107E6000A2D0813461F49FD0082FAFD0023811F036
:107E7000013811F484E001C083E08DD089C08234E0
:107E800011F484E103C0853419F485E0A6D080C0E4
:107E9000853579F488D0E82EFF2485D0082F10E0AE
:107EA000102F00270E291F29000F111F8ED06801E7
:107EB0006FC0863521F484E090D080E0DECF843638
:107EC00009F040C070D06FD0082F6DD080E0C81688
:107ED00080E7D80618F4F601B7BEE895C0E0D1E017
:107EE00062D089930C17E1F7F0E0CF16F0E7DF06D8
:107EF00018F0F601B7BEE89568D007B600FCFDCFD4
:107F0000A601A0E0B1E02C9130E011968C91119780
:107F100090E0982F8827822B932B1296FA010C0160
:107F200087BEE89511244E5F5F4FF1E0A038BF0790
:107F300051F7F601A7BEE89507B600FCFDCF97BE46
:107F4000E89526C08437B1F42ED02DD0F82E2BD052
:107F50003CD0F601EF2C8F010F5F1F4F84911BD097
:107F6000EA94F801C1F70894C11CD11CFA94CF0C13
:107F7000D11C0EC0853739F428D08EE10CD085E9AC
:107F80000AD08FE07ACF813511F488E018D01DD067
:107F900080E101D065CF982F8091C00085FFFCCF94
:107FA0009093C60008958091C00087FFFCCF809118
:107FB000C00084FD01C0A8958091C6000895E0E648
:107FC000F0E098E1908380830895EDDF803219F02E
:107FD00088E0F5DFFFCF84E1DECF1F93182FE3DFCA
:107FE0001150E9F7F2DF1F91089580E0E8DFEE27F6
:047FF000FF270994CA
:027FFE00040479
:0400000300007E007B
:00000001FF
